:020000040000FA
:060000000A128A11EE2F26
:100D1400831203138811081508008312031388151E
:100D24000811080083120313881208178813080097
:100D340083120313881608138813080083120313FD
:100D440088120813881708008316031388140811DF
:100D540088118812081388130800F0007008203ED8
:100D6400840083130008831203138600080083168B
:100D74000317890183160313860183120313860163
:100D8400080083120313080C0139F200F3017208FE
:100D9400F0007308F100CE2E08003F3406345B34B3
:100DA4004F3466346D347D3407347F346F34773494
:100DB4007C3439345E34793471347E088A007F0897
:100DC40082000A128A11DF260A128A118000840A1C
:100DD40004087D0603190034FF0A0319FE0AE32EF2
:100DE400012FC730F200F62EF20BF52EF92EFA2E53
:100DF400FF30F0070318F10AFF30F107012F7008E4
:100E04007104031D062F072FF32E082F08000A1262
:100E14008A11A6260A128A110A128A11B9260A12FE
:100E24008A11F601F701F801D02FD02F8312031392
:100E340086010A128A119A260A128A110A128A1142
:100E44008F260A128A110A128A11C3260A128A11DB
:100E540070037104031D2F2F302FD02FF601F60AD3
:100E6400D02FD02F0330F7000030F8000A128A1177
:100E7400C3260A128A1170087104031D422F432FDE
:100E8400D02F0230F4007408F600D02FD02F77084A
:100E94000A128A11AF260A128A11E830F0000330D0
:100EA400F1000A128A11F2260A128A11FF30F7079A
:100EB4000318F80AFF30F80777087804031D632F36
:100EC400642F6D2F0630F7000030F8000330F40073
:100ED4007408F600D02F0230F4007408F600D02F06
:100EE400D02F0A128A1194260A128A1177080A123C
:100EF4008A11AF260A128A11E830F0000330F1009B
:100F04000A128A11F2260A128A11FF30F70703180F
:100F1400F80AFF30F80777087804031D922F932FFF
:100F24009C2F0830F7000030F8000430F4007408F7
:100F3400F600D02F0330F4007408F600D02FD02F21
:100F44000A128A11A0260A128A110A128A118A2602
:100F54000A128A1177080A128A11AF260A128A1114
:100F6400E830F0000330F1000A128A11F2260A1266
:100F74008A11FF30F7070318F80AFF30F8077708DB
:100F84007804031DC62FC72FC92FF601D02F0430B4
:100F9400F4007408F600D02FD02FD02F7608F40078
:100FA400F5017508003A0319D82FD02F7408003AB8
:100FB4000319182F013A0319342F033A0319492F3F
:100FC400013A0319732F073A0319A22FD02FD02FF8
:100FD400D02F0A128A11002883133030FD00063006
:100FE400FE00CF30FF00203084000A128A11E3266D
:0C0FF4000A128A1183010A128A11092FC7
:04400E00D4E0FFFFFC
:00000001FF
